{
  "contractName": "DEDEDEX",
  "abi": [
    {
      "constant": true,
      "inputs": [],
      "name": "isDedeDex",
      "outputs": [
        {
          "name": "",
          "type": "bool"
        }
      ],
      "payable": false,
      "stateMutability": "view",
      "type": "function"
    },
    {
      "constant": false,
      "inputs": [],
      "name": "renounceOwnership",
      "outputs": [],
      "payable": false,
      "stateMutability": "nonpayable",
      "type": "function"
    },
    {
      "constant": false,
      "inputs": [
        {
          "name": "kip17",
          "type": "address"
        }
      ],
      "name": "setKip17",
      "outputs": [],
      "payable": false,
      "stateMutability": "nonpayable",
      "type": "function"
    },
    {
      "constant": false,
      "inputs": [
        {
          "name": "dedeDex",
          "type": "address"
        }
      ],
      "name": "setDedeDex",
      "outputs": [],
      "payable": false,
      "stateMutability": "nonpayable",
      "type": "function"
    },
    {
      "constant": true,
      "inputs": [],
      "name": "owner",
      "outputs": [
        {
          "name": "",
          "type": "address"
        }
      ],
      "payable": false,
      "stateMutability": "view",
      "type": "function"
    },
    {
      "constant": true,
      "inputs": [],
      "name": "isOwner",
      "outputs": [
        {
          "name": "",
          "type": "bool"
        }
      ],
      "payable": false,
      "stateMutability": "view",
      "type": "function"
    },
    {
      "constant": true,
      "inputs": [],
      "name": "isKip17",
      "outputs": [
        {
          "name": "",
          "type": "bool"
        }
      ],
      "payable": false,
      "stateMutability": "view",
      "type": "function"
    },
    {
      "constant": false,
      "inputs": [
        {
          "name": "newOwner",
          "type": "address"
        }
      ],
      "name": "transferOwnership",
      "outputs": [],
      "payable": false,
      "stateMutability": "nonpayable",
      "type": "function"
    },
    {
      "inputs": [],
      "payable": false,
      "stateMutability": "nonpayable",
      "type": "constructor"
    },
    {
      "anonymous": false,
      "inputs": [
        {
          "indexed": true,
          "name": "previousOwner",
          "type": "address"
        },
        {
          "indexed": true,
          "name": "newOwner",
          "type": "address"
        }
      ],
      "name": "OwnershipTransferred",
      "type": "event"
    },
    {
      "constant": false,
      "inputs": [],
      "name": "klayToDede",
      "outputs": [
        {
          "name": "",
          "type": "bool"
        }
      ],
      "payable": true,
      "stateMutability": "payable",
      "type": "function"
    },
    {
      "constant": false,
      "inputs": [
        {
          "name": "amount",
          "type": "uint256"
        }
      ],
      "name": "dedeToKlay",
      "outputs": [
        {
          "name": "",
          "type": "bool"
        }
      ],
      "payable": false,
      "stateMutability": "nonpayable",
      "type": "function"
    },
    {
      "constant": true,
      "inputs": [],
      "name": "getKlayBalance",
      "outputs": [
        {
          "name": "",
          "type": "uint256"
        }
      ],
      "payable": false,
      "stateMutability": "view",
      "type": "function"
    },
    {
      "constant": true,
      "inputs": [],
      "name": "getDedeBalance",
      "outputs": [
        {
          "name": "",
          "type": "uint256"
        }
      ],
      "payable": false,
      "stateMutability": "view",
      "type": "function"
    },
    {
      "constant": false,
      "inputs": [
        {
          "name": "tokenAddress",
          "type": "address"
        }
      ],
      "name": "setToken",
      "outputs": [
        {
          "name": "",
          "type": "bool"
        }
      ],
      "payable": false,
      "stateMutability": "nonpayable",
      "type": "function"
    }
  ],
  "bytecode": "0x608060405234801561001057600080fd5b50336000806101000a81548173ffffffffffffffffffffffffffffffffffffffff021916908373ffffffffffffffffffffffffffffffffffffffff1602179055506000809054906101000a900473ffffffffffffffffffffffffffffffffffffffff1673ffffffffffffffffffffffffffffffffffffffff16600073ffffffffffffffffffffffffffffffffffffffff167f8be0079c531659141344cd1fd0a4f28419497f9722a3daafe3b4186f6b6457e060405160405180910390a36103e8600360146101000a81548161ffff021916908361ffff160217905550610f7b806100fb6000396000f3fe6080604052600436106100c25760003560e01c806386252a621161007f5780639af79b62116100595780639af79b62146102f4578063bd359e1414610316578063d458a8ca14610369578063f2fde38b14610398576100c2565b806386252a621461021d5780638da5cb5b1461026e5780638f32d59b146102c5576100c2565b806311e6ce03146100c7578063144fa6d7146100f25780635bac13ab1461015b578063715018a61461018a5780637f8f073c146101a1578063807d16a6146101f2575b600080fd5b3480156100d357600080fd5b506100dc6103e9565b6040518082815260200191505060405180910390f35b3480156100fe57600080fd5b506101416004803603602081101561011557600080fd5b81019080803573ffffffffffffffffffffffffffffffffffffffff1690602001909291905050506104ca565b604051808215151515815260200191505060405180910390f35b34801561016757600080fd5b506101706105ca565b604051808215151515815260200191505060405180910390f35b34801561019657600080fd5b5061019f610622565b005b3480156101ad57600080fd5b506101f0600480360360208110156101c457600080fd5b81019080803573ffffffffffffffffffffffffffffffffffffffff16906020019092919050505061075b565b005b3480156101fe57600080fd5b50610207610819565b6040518082815260200191505060405180910390f35b34801561022957600080fd5b5061026c6004803603602081101561024057600080fd5b81019080803573ffffffffffffffffffffffffffffffffffffffff169060200190929190505050610838565b005b34801561027a57600080fd5b506102836108f6565b604051808273ffffffffffffffffffffffffffffffffffffffff1673ffffffffffffffffffffffffffffffffffffffff16815260200191505060405180910390f35b3480156102d157600080fd5b506102da61091f565b604051808215151515815260200191505060405180910390f35b6102fc610976565b604051808215151515815260200191505060405180910390f35b34801561032257600080fd5b5061034f6004803603602081101561033957600080fd5b8101908080359060200190929190505050610b2f565b604051808215151515815260200191505060405180910390f35b34801561037557600080fd5b5061037e610cc9565b604051808215151515815260200191505060405180910390f35b3480156103a457600080fd5b506103e7600480360360208110156103bb57600080fd5b81019080803573ffffffffffffffffffffffffffffffffffffffff169060200190929190505050610d21565b005b6000600360009054906101000a900473ffffffffffffffffffffffffffffffffffffffff1673ffffffffffffffffffffffffffffffffffffffff166370a08231306040518263ffffffff1660e01b8152600401808273ffffffffffffffffffffffffffffffffffffffff1673ffffffffffffffffffffffffffffffffffffffff16815260200191505060206040518083038186803b15801561048a57600080fd5b505afa15801561049e573d6000803e3d6000fd5b505050506040513d60208110156104b457600080fd5b8101908080519060200190929190505050905090565b60006104d461091f565b610546576040517f08c379a00000000000000000000000000000000000000000000000000000000081526004018080602001828103825260208152602001807f4f776e61626c653a2063616c6c6572206973206e6f7420746865206f776e657281525060200191505060405180910390fd5b600073ffffffffffffffffffffffffffffffffffffffff168273ffffffffffffffffffffffffffffffffffffffff16141561058057600080fd5b81600360006101000a81548173ffffffffffffffffffffffffffffffffffffffff021916908373ffffffffffffffffffffffffffffffffffffffff16021790555060019050919050565b6000600260009054906101000a900473ffffffffffffffffffffffffffffffffffffffff1673ffffffffffffffffffffffffffffffffffffffff163373ffffffffffffffffffffffffffffffffffffffff1614905090565b61062a61091f565b61069c576040517f08c379a00000000000000000000000000000000000000000000000000000000081526004018080602001828103825260208152602001807f4f776e61626c653a2063616c6c6572206973206e6f7420746865206f776e657281525060200191505060405180910390fd5b600073ffffffffffffffffffffffffffffffffffffffff166000809054906101000a900473ffffffffffffffffffffffffffffffffffffffff1673ffffffffffffffffffffffffffffffffffffffff167f8be0079c531659141344cd1fd0a4f28419497f9722a3daafe3b4186f6b6457e060405160405180910390a360008060006101000a81548173ffffffffffffffffffffffffffffffffffffffff021916908373ffffffffffffffffffffffffffffffffffffffff160217905550565b61076361091f565b6107d5576040517f08c379a00000000000000000000000000000000000000000000000000000000081526004018080602001828103825260208152602001807f4f776e61626c653a2063616c6c6572206973206e6f7420746865206f776e657281525060200191505060405180910390fd5b80600160006101000a81548173ffffffffffffffffffffffffffffffffffffffff021916908373ffffffffffffffffffffffffffffffffffffffff16021790555050565b60003073ffffffffffffffffffffffffffffffffffffffff1631905090565b61084061091f565b6108b2576040517f08c379a00000000000000000000000000000000000000000000000000000000081526004018080602001828103825260208152602001807f4f776e61626c653a2063616c6c6572206973206e6f7420746865206f776e657281525060200191505060405180910390fd5b80600260006101000a81548173ffffffffffffffffffffffffffffffffffffffff021916908373ffffffffffffffffffffffffffffffffffffffff16021790555050565b60008060009054906101000a900473ffffffffffffffffffffffffffffffffffffffff16905090565b60008060009054906101000a900473ffffffffffffffffffffffffffffffffffffffff1673ffffffffffffffffffffffffffffffffffffffff163373ffffffffffffffffffffffffffffffffffffffff1614905090565b6000806109816103e9565b90506000600360149054906101000a900461ffff1661ffff1634029050808210156109f7576040517f08c379a000000000000000000000000000000000000000000000000000000000815260040180806020018281038252603e815260200180610eec603e913960400191505060405180910390fd5b600360009054906101000a900473ffffffffffffffffffffffffffffffffffffffff1673ffffffffffffffffffffffffffffffffffffffff1663cb4022893033600360149054906101000a900461ffff1661ffff1634026040518463ffffffff1660e01b8152600401808473ffffffffffffffffffffffffffffffffffffffff1673ffffffffffffffffffffffffffffffffffffffff1681526020018373ffffffffffffffffffffffffffffffffffffffff1673ffffffffffffffffffffffffffffffffffffffff1681526020018281526020019350505050602060405180830381600087803b158015610aea57600080fd5b505af1158015610afe573d6000803e3d6000fd5b505050506040513d6020811015610b1457600080fd5b81019080805190602001909291905050505060019250505090565b6000806009600a600360149054906101000a900461ffff1661ffff168581610b5357fe5b0481610b5b57fe5b04029050600360009054906101000a900473ffffffffffffffffffffffffffffffffffffffff1673ffffffffffffffffffffffffffffffffffffffff1663cb4022893330866040518463ffffffff1660e01b8152600401808473ffffffffffffffffffffffffffffffffffffffff1673ffffffffffffffffffffffffffffffffffffffff1681526020018373ffffffffffffffffffffffffffffffffffffffff1673ffffffffffffffffffffffffffffffffffffffff1681526020018281526020019350505050602060405180830381600087803b158015610c3c57600080fd5b505af1158015610c50573d6000803e3d6000fd5b505050506040513d6020811015610c6657600080fd5b8101908080519060200190929190505050503373ffffffffffffffffffffffffffffffffffffffff166108fc829081150290604051600060405180830381858888f19350505050158015610cbe573d6000803e3d6000fd5b506001915050919050565b6000600160009054906101000a900473ffffffffffffffffffffffffffffffffffffffff1673ffffffffffffffffffffffffffffffffffffffff163373ffffffffffffffffffffffffffffffffffffffff1614905090565b610d2961091f565b610d9b576040517f08c379a00000000000000000000000000000000000000000000000000000000081526004018080602001828103825260208152602001807f4f776e61626c653a2063616c6c6572206973206e6f7420746865206f776e657281525060200191505060405180910390fd5b610da481610da7565b50565b600073ffffffffffffffffffffffffffffffffffffffff168173ffffffffffffffffffffffffffffffffffffffff161415610e2d576040517f08c379a0000000000000000000000000000000000000000000000000000000008152600401808060200182810382526026815260200180610f2a6026913960400191505060405180910390fd5b8073ffffffffffffffffffffffffffffffffffffffff166000809054906101000a900473ffffffffffffffffffffffffffffffffffffffff1673ffffffffffffffffffffffffffffffffffffffff167f8be0079c531659141344cd1fd0a4f28419497f9722a3daafe3b4186f6b6457e060405160405180910390a3806000806101000a81548173ffffffffffffffffffffffffffffffffffffffff021916908373ffffffffffffffffffffffffffffffffffffffff1602179055505056fe444544454445583a20436f6e747261637420646f6573206e6f7420636f6e7461696e2073756666696369656e7420616d6f756e747320746f2073656e642e4f776e61626c653a206e6577206f776e657220697320746865207a65726f2061646472657373a165627a7a72305820d98ff68ff085ec4efcb15a1e26678212e3a097e4c82290a97630ea047af3a8490029",
  "source": "// SPDX-License-Identifier: MIT\npragma solidity 0.5.6;\n\nimport \"./DEDEKIP7.sol\";\nimport \"./Ownable.sol\";\n\ncontract DEDEDEX is Ownable {\n  DEDEKIP7 token;\n  uint16 ratio;\n\n  constructor() public {\n\tratio = 1000;\n  }\n\n  function klayToDede() public payable returns(bool) {\n\tuint256 dedeBalance = getDedeBalance();\n\tuint256 dedeToSend = msg.value * ratio;\n\trequire(dedeBalance >= dedeToSend, \"DEDEDEX: Contract does not contain sufficient amounts to send.\");\n\ttoken.delegatedTransferFrom(address(this), msg.sender, msg.value * ratio);\n\treturn true;\n  }\n\n  function dedeToKlay(uint256 amount) public returns(bool) {\n\tuint256 klayToSend = amount / ratio / 10 * 9;\n\ttoken.delegatedTransferFrom(msg.sender, address(this), amount);\n\tmsg.sender.transfer(klayToSend);\n\treturn true;\n  }\n\n  function getKlayBalance() public view returns(uint256) {\n\treturn address(this).balance;\n  }\n\n  function getDedeBalance() public view returns(uint256) {\n\treturn token.balanceOf(address(this));\n  }\n\n  function setToken(address tokenAddress) public onlyOwner returns(bool) {\n\trequire(tokenAddress != address(0x0));\n\ttoken = DEDEKIP7(tokenAddress);\n\treturn true;\n  }\n}\n",
  "sourcePath": "/Users/robinkwon/Bootcamp/beb-03-project3-DEDE/smart-contract/contracts/DEDEDEX.sol",
  "compiler": {
    "name": "solc",
    "version": "0.5.6+commit.b259423e.Emscripten.clang"
  },
  "schemaVersion": "3.4.6",
  "updatedAt": "2022-05-17T03:00:27.702Z",
  "networkType": "ethereum",
  "devdoc": {
    "methods": {
      "isDedeDex()": {
        "details": "Returns true if the caller is the current DEDE DEX smart contract account."
      },
      "isKip17()": {
        "details": "Returns true if the caller is the current KIP-17 smart contract account."
      },
      "isOwner()": {
        "details": "Returns true if the caller is the current owner."
      },
      "owner()": {
        "details": "Returns the address of the current owner."
      },
      "renounceOwnership()": {
        "details": "Leaves the contract without owner. It will not be possible to call `onlyOwner` functions anymore. Can only be called by the current owner.     * > Note: Renouncing ownership will leave the contract without an owner, thereby removing any functionality that is only available to the owner."
      },
      "setDedeDex(address)": {
        "details": "Set DEDE DEX smart contract account by owner."
      },
      "setKip17(address)": {
        "details": "Set KIP-7 smart contract account by owner."
      },
      "transferOwnership(address)": {
        "details": "Transfers ownership of the contract to a new account (`newOwner`). Can only be called by the current owner."
      }
    }
  },
  "userdoc": {
    "methods": {}
  }
}